:100000000C9434000C9451000C9428060C9451006C
:100010000C9451000C940E060C9451000C948E0517
:100020000C9451000C9451000C9451000C9451000C
:100030000C9451000C9451000C9439060C9451000E
:100040000C9451000C9451000C9451000C945100EC
:100050000C9451000C9451000C9451000C945100DC
:100060000C9451000C94510011241FBECFEFD8E026
:10007000DEBFCDBF11E0A0E0B1E0E0E6F9E102C0F3
:1000800005900D92AC30B107D9F721E0ACE0B1E0BA
:1000900001C01D92A434B207E1F70E9443060C94FC
:1000A000AE0C0C9400001092C50087E68093C4004B
:1000B00088E18093C10086E08093C200089590910A
:1000C000C00095FFFCCF8093C60008958091C000CA
:1000D00087FFFCCF8091C6000895CF93DF93EC019A
:1000E0008991882319F00E945F00FACFDF91CF91A8
:1000F00008950F931F93CF93DF93CDB7DEB72A9761
:100100000FB6F894DEBF0FBECDBF9F938F9386E0EE
:1001100091E09F938F938E010F5F1F4F1F930F935B
:100120000E94FB09C8010E946D0089E091E00E94D5
:100130006D002FEF89E698E1215080409040E1F773
:1001400000C000000F900F900F900F900F900F9035
:100150002A960FB6F894DEBF0FBECDBFDF91CF91C8
:100160001F910F9108952F923F924F925F926F923D
:100170007F928F929F92AF92BF92CF92DF92EF9237
:10018000FF920F931F93CF93DF93CDB7DEB768979E
:100190000FB6F894DEBF0FBECDBFC0900C01D0905B
:1001A0000D01E0900E01F0900F0120912B01309194
:1001B0002C01388B2F8740912D0150912E015A83AD
:1001C000498360912F01709130017C836B83A091F2
:1001D0003101B0913201BE83AD8320913301309162
:1001E000340138872F8340913501509136015A8769
:1001F00049872091100130911101409112015091D5
:1002000013012B873C874D875E87BC0180E090E01F
:1002100029EA34E040E050E00E94C30619012A01B7
:100220003B014C01C701B6012FE23CEF4FEF5FEFFE
:100230000E94B40659016A017B018C019101A2015F
:10024000B301C4010E94C50719012A013B014C01F9
:100250006F857889AB0160E070E080E090E0DC01C0
:10026000498B5A8B6B8B7C8B8D8B9E8BAF8BB88F16
:1002700084ECA82EBB24BA94CC24CA94DD24DA944E
:10028000EE24EA94FF24FA940FEF1FEF9A0140E066
:1002900050E060E070E080E090E00E945B06590171
:1002A0006A017B018C019101A201B301C4010E948A
:1002B000C50729013A014B01898B9F8729813A8122
:1002C00099ECA92EBB24BA94CC24CA94DD24DA94E8
:1002D000EE24EA94FF24FA940FEF1FEF40E050E081
:1002E00060E070E080E090E00E945B0659016A01E6
:1002F0007B018C019201A301B40189899F850E9431
:10030000C50729013A014B018F8799832B813C81D5
:10031000A90122EDA22EBB24BA94CC24CA94DD24D8
:10032000DA94EE24EA94FF24FA940FEF1FEF9A0177
:1003300040E050E060E070E080E090E00E945B060A
:1003400059016A017B018C019201A301B4018F85DF
:1003500099810E94C50729013A014B018B8399833A
:100360002D813E81A90130EEA32EBB24BA94CC246A
:10037000CA94DD24DA94EE24EA94FF24FA940FEF71
:100380001FEF9A0140E050E060E070E080E090E014
:100390000E945B0659016A017B018C019201A30155
:1003A000B4018B8199810E94C50729013A014B0153
:1003B0008B8399832F8138856FEEA62EBB24BA9448
:1003C000CC24CA94DD24DA94EE24EA94FF24FA942F
:1003D0000FEF1FEF40E050E060E070E080E090E061
:1003E0000E945B0659016A017B018C019201A30105
:1003F000B4018B8199810E94C50729013A014B0103
:100400008B83998329853A857BEFA72EBB24BA94E9
:10041000CC24CA94DD24DA94EE24EA94FF24FA94DE
:100420000FEF1FEF40E050E060E070E080E090E010
:100430000E945B0659016A017B018C019201A301B4
:10044000B4018B8199810E94C507E8EEAE2EF3E0DE
:10045000BF2EC12CD12CE12CF12C00E010E00E9429
:10046000F00649015A014B855C856D857E85840EB9
:10047000951EA61EB71E8092100190921101A092A7
:100480001201B09213012091240130912501809135
:10049000100190911101A0911201B0911301820FEE
:1004A000931FA11DB11D80930C0190930D01A0938A
:1004B0000E01B0930F018091100190911101A09154
:1004C0001201B0911301B7FF08C0109210011092F1
:1004D000110110921201109213018091100190915C
:1004E0001101A0911201B091130189389341A10526
:1004F000B10564F088E893E1A0E0B0E080931001DA
:1005000090931101A0931201B093130180910C01FB
:1005100090910D01A0910E01B0910F01B7FF08C09D
:1005200010920C0110920D0110920E0110920F0109
:1005300080910C0190910D01A0910E01B0910F01DD
:1005400089389341A105B10564F088E893E1A0E002
:10055000B0E080930C0190930D01A0930E01B09335
:100560000F0180910C0190910D01A0910E01B091AD
:100570000F0168960FB6F894DEBF0FBECDBFDF91B6
:10058000CF911F910F91FF90EF90DF90CF90BF9090
:10059000AF909F908F907F906F905F904F903F9023
:1005A0002F900895CF93DF93EC010E94B804CE0101
:1005B0000E94B3000E94D804909389008093880021
:1005C000DF91CF9108952F923F924F925F926F9259
:1005D0007F928F929F92AF92BF92CF92DF92EF92D3
:1005E000FF920F931F93CF93DF93CDB7DEB72E9774
:1005F0000FB6F894DEBF0FBECDBFA0E0B0E09C0107
:10060000AD01261B370B4109510929833A834B83DE
:100610005C83C0902001D0902101E0902201F090F5
:10062000230140901C0150901D0160901E017090AC
:100630001F018091180190911901A0911A01B091A8
:100640001B018D839E83AF83B88720911401309165
:100650001501409116015091170129873A874B8760
:100660005C8769817A818B819C8125EA34E040E056
:1006700050E00E94B406322E832E942E052F162FA2
:100680007E878D87292EC701B6012CEA37EF4FEF01
:100690005FEF0E94B40659016A017B01FC01232D22
:1006A000382D492D502F612F7E858D85922D8F01FC
:1006B0000E94C50779011A014B018E879D87C301EE
:1006C000B2012AEB33E040E050E00E94B406590149
:1006D0006A01F62FE72F8C019701A101B4018E85E5
:1006E0009D85EF2EFE2E0E94C50729013A014B0180
:1006F0008E879D876D817E818F81988525ED36E07F
:1007000040E050E00E94B40659016A017B018C016F
:100710009201A301B4018E859D850E94C507290120
:100720003A014B018D879D8369857A858B859C85F0
:1007300023E13DEF4FEF5FEF0E94B40659016A01DC
:100740007B018C019201A301B4018D859D810E94E2
:10075000C507E8EEAE2EF3E0BF2EC12CD12CE12C64
:10076000F12C00E010E00E94F0062D83B32FF42F4F
:10077000E52F162F7987F82E092FA0E00E94D707C2
:1007800074F0283833414105510561057105810533
:10079000910569F064F0B8E8BD83B3E102C01D8241
:1007A000B0E0F0E0E0E010E01986F12C00E04091CC
:1007B0002001509121016091220170912301409309
:1007C0001C0150931D0160931E0170931F0129812C
:1007D0003A814B815C812093200130932101409329
:1007E0002201509323014091180150911901609109
:1007F0001A0170911B0140931401509315016093ED
:100800001601709317014D815B2F6F2F7E2F409340
:1008100018015093190160931A0170931B012090E5
:10082000240130902501242F3B2F4F2F5E2F612F65
:1008300079858F2D902F5101C12CD12CE12CF12CD9
:1008400000E010E00E94CE07C9012E960FB6F89482
:10085000DEBF0FBECDBFDF91CF911F910F91FF90F3
:10086000EF90DF90CF90BF90AF909F908F907F9050
:100870006F905F904F903F902F900895CF93DF93AC
:10088000EC010E949804BC01CE010E94E3020E9488
:10089000D8049093890080938800DF91CF910895C8
:1008A00020910001309101012817390709F4CB018B
:1008B0009093010180930001089585E480937C006A
:1008C00087E880937A0082E08093B00094E0909370
:1008D000B10099EF9093B300809370001092B20032
:1008E000089554985C9AE8E6F0E080818460808303
:1008F000EDE6F0E0808180618083E9E6F0E08081D0
:1009000088608083E99A0895219A82E88093800024
:1009100089E1809381008FE79EE390938700809325
:10092000860081E090E0909389008093880008958C
:1009300080917A00806480937A0080917A0084FFAD
:10094000FCCF80917A00806180937A00609178007A
:100950007091790080E090E00E94000926EF38E273
:100960004CE950E40E948E090E94D108CB01089501
:10097000CF93DF93C0E0D0E080917C00807F9C2FFC
:100980009F5F892B80937C0085E38A95F1F70000B7
:100990000E949804FE01EE0FFF1FE55DFE4F91835C
:1009A00080832196C630D10539F7DF91CF91089524
:1009B000BC0180E090E00E94000920E030E04AE7BE
:1009C00056E40E948E0920E030E44CE955E40E9490
:1009D0005F0820E030E040E85FE30E94F2070E94F9
:1009E000D108CB010895EF92FF920F931F93CF93FD
:1009F000DF938C017B01229A0E94D804C8E8D0E0E2
:100A0000998388832FEF8BE792E9215080409040B3
:100A1000E1F700C00000C7010E94D80499838883D1
:100A20002A9A2FEF8BE792E9215080409040E1F71E
:100A300000C00000C8010E94D804998388832A98C6
:100A40002FEF8BE792E9215080409040E1F700C002
:100A5000000019821882DF91CF911F910F91FF90B2
:100A6000EF900895229A82E084BD85E085BD8FEFE6
:100A700087BD08956091420170914301E091420168
:100A8000F0914301809142019091430120914201F4
:100A9000309143019F2F969596959727492F417046
:100AA00050E0220F331F242B352B3093430120932A
:100AB0004201817008950E943A05813051F480EA24
:100AC0009FE00E94D80490938900809388002A9A1E
:100AD000089588EE93E00E94D80490938900809353
:100AE00088002A980895EEE6F0E080818D7F80836B
:100AF00010928900109288002A9808950E94730528
:100B0000109241011092400183E393E090934301DE
:100B10008093420182E080936E0008951F920F92AD
:100B20000FB60F9211242F933F934F935F936F93C0
:100B30007F938F939F93AF93BF93EF93FF93809196
:100B40003D018F5F80933D018E3128F010923D0171
:100B500081E080933F0180913B0190913C0101969F
:100B600090933C0180933B018031974228F1109291
:100B70003C0110923B0110923A011092390181E040
:100B800080933E0160EA7FE088EE93E00E9450048B
:100B90008091000190910101883E934019F088EE08
:100BA00093E002C080E090E09093250180932401BF
:100BB00095B181E0892785B980913E018823E9F0CC
:100BC0008091390190913A01019690933A01809376
:100BD00039018838934188F010923E0180912401B8
:100BE00090912501892B19F080E090E002C088EEF9
:100BF00093E09093250180932401FF91EF91BF91A1
:100C0000AF919F918F917F916F915F914F913F91A4
:100C10002F910F900FBE0F901F9018951F920F925B
:100C20000FB60F9211248F939F934C9B0AC081E0C3
:100C3000809326018CEA9DE0909325018093240106
:100C4000289A9F918F910F900FBE0F901F9018952B
:100C50001F920F920FB60F9211241092260110923C
:100C600025011092240128980F900FBE0F901F901D
:100C700018951F920F920FB60F9211240F900FBE6E
:100C80000F901F9018950E945D040E9484040E949A
:100C900071040E9432050E945300789480913F01B4
:100CA0008823E1F310923F018091000190910101AE
:100CB0000E94D202F3CFDF93CF931F930F939A9D9D
:100CC000F02D219FF00D8B9DF00D8A9DE02DF10DF3
:100CD000039FF00D029FE00DF11D4E9DE00DF11DF3
:100CE0005E9DF00D4F9DF00D7F936F93BF92AF927D
:100CF0005F934F93D5010E94E3078B01AC01D701AD
:100D00000E94E307EB01E80FF91FD6010E94AB0632
:100D10002F913F91D6010E94E307C60FD71FE81F0E
:100D2000F91FAF91BF910E94AB062F913F910E9496
:100D3000E307C60FD71FE81FF91FD6010E94E3077C
:100D4000E60FF71F9801BE01CF0111240F911F91EB
:100D5000CF91DF9108950E94E307460F571FC81FE8
:100D6000D91F08F43196089597FB57FF0C94C406D9
:100D70009F938F930E94C4066E1B7F0BAF91BF9110
:100D80008A0B9B0B0895E894DF93CF93FC01DB0162
:100D90000E94E3077F936F93E9019A01AC01BF932F
:100DA000AF933F932F93DF010E94E30726F46C1B60
:100DB0007D0B820B930B9E01EB01FC010E94AB06A5
:100DC000AF91BF912F913F910E94AB06BE01CF0121
:100DD000F9012F913F91CF91DF910895689401C05F
:100DE000E894F92FF12B12F00C942207A0E0B0E068
:100DF000ECEFF6E00C949407092E059422F40E947F
:100E00007E07112392F4F0E80F26FFEFE094F094B0
:100E100000951095B094C094D094A194BF0ACF0AC5
:100E2000DF0AEF0AFF0A0F0B1F0B0E942D0707FCBA
:100E30000E947E07CDB7DEB7ECE00C94B007689453
:100E400001C0E8948F929F92CF93DF930E942D0769
:100E5000DF91CF919F908F90089588249924F40179
:100E6000E401B0E49F93AA279A158B049C04ED0536
:100E7000FE05CF05D007A10798F4AD2FDC2FCF2FAB
:100E8000FE2FE92D982C892E982F872F762F652FEE
:100E9000542F432F322F2227B85031F7BF9127C04C
:100EA0001B2EBF91BB27220F331F441F551F661FE8
:100EB000771F881F991F881C991CEE1FFF1FCC1FCE
:100EC000DD1FAA1FBB1F8A149B04EC05FD05CE0580
:100ED000DF05A007B10748F08A189B08EC09FD0957
:100EE000CE09DF09A00BB10B21601A94E1F62EF4B4
:100EF0009401AF01BE01CD01000C0895609570957D
:100F00008095909530954095509521953F4F4F4F46
:100F10005F4F6F4F7F4F8F4F9F4F08952F923F929C
:100F20004F925F926F927F928F929F92AF92BF92F9
:100F3000CF92DF92EF92FF920F931F93CF93DF93A5
:100F4000CDB7DEB7CA1BDB0B0FB6F894DEBF0FBE02
:100F5000CDBF09942A88398848885F846E847D844F
:100F60008C849B84AA84B984C884DF80EE80FD8051
:100F70000C811B81AA81B981CE0FD11D0FB6F894C7
:100F8000DEBF0FBECDBFED0108952A0D3B1D4C1DE8
:100F90005D1D6E1D7F1D801F911F08952A193B093D
:100FA0004C095D096E097F09800B910B089500249F
:100FB000A7FD00942A17300540055005600570050F
:100FC000800590050895A29FB001B39FC001A39F23
:100FD000700D811D1124911DB29F700D811D112472
:100FE000911D08955058BB27AA270E940A080C9407
:100FF00054090E94460938F00E944D0920F039F446
:101000009F3F19F426F40C9443090EF4E095E7FB96
:101010000C943D09E92F0E94650958F3BA1762073D
:1010200073078407950720F079F4A6F50C948709D7
:101030000EF4E0950B2EBA2FA02D0B01B9019001F3
:101040000C01CA01A0011124FF27591B99F0593F37
:1010500050F4503E68F11A16F040A22F232F342F7F
:101060004427585FF3CF469537952795A795F040CD
:101070005395C9F77EF41F16BA0B620B730B840BE2
:10108000BAF09150A1F0FF0FBB1F661F771F881F9A
:10109000C2F70EC0BA0F621F731F841F48F48795F2
:1010A00077956795B795F7959E3F08F0B0CF9395E4
:1010B000880F08F09927EE0F9795879508950E945D
:1010C00073080C9454090E944D0958F00E94460977
:1010D00040F029F45F3F29F00C943D0951110C9424
:1010E00088090C9443090E94650968F39923B1F3B8
:1010F000552391F3951B550BBB27AA27621773073E
:10110000840738F09F5F5F4F220F331F441FAA1FD1
:10111000A9F335D00E2E3AF0E0E832D0915050408D
:10112000E695001CCAF72BD0FE2F29D0660F771F3B
:10113000881FBB1F261737074807AB07B0E809F021
:10114000BB0B802DBF01FF2793585F4F3AF09E3FA6
:10115000510578F00C943D090C9488095F3FE4F345
:10116000983ED4F3869577956795B795F7959F5FE9
:10117000C9F7880F911D9695879597F90895E1E035
:10118000660F771F881FBB1F621773078407BA0794
:1011900020F0621B730B840BBA0BEE1F88F7E095EF
:1011A00008950E946D0988F09F5798F0B92F9927EC
:1011B000B751B0F0E1F0660F771F881F991F1AF042
:1011C000BA95C9F714C0B13091F00E948709B1E017
:1011D00008950C948709672F782F8827B85F39F016
:1011E000B93FCCF3869577956795B395D9F73EF4DB
:1011F00090958095709561957F4F8F4F9F4F089583
:10120000E89409C097FB3EF49095809570956195A0
:101210007F4F8F4F9F4F9923A9F0F92F96E9BB2756
:101220009395F695879577956795B795F111F8CFD2
:10123000FAF4BB0F11F460FF1BC06F5F7F4F8F4F3D
:101240009F4F16C0882311F096E911C0772321F033
:101250009EE8872F762F05C0662371F096E8862FCB
:1012600070E060E02AF09A95660F771F881FDAF722
:10127000880F9695879597F9089597F99F6780E865
:1012800070E060E008959FEF80EC089500240A94D8
:101290001616170618060906089500240A94121651
:1012A0001306140605060895092E0394000C11F484
:1012B000882352F0BB0F40F4BF2B11F460FF04C031
:1012C0006F5F7F4F8F4F9F4F089557FD9058440F8A
:1012D000551F59F05F3F71F04795880F97FB991F95
:1012E00061F09F3F79F08795089512161306140652
:1012F000551FF2CF4695F1DF08C0161617061806DF
:10130000991FF1CF86957105610508940895E894B9
:10131000BB2766277727CB0197F908950E94A1097B
:101320000C9454090E94460938F00E944D0920F09F
:10133000952311F00C943D090C94430911240C944D
:1013400088090E94650970F3959FC1F3950F50E0DD
:10135000551F629FF001729FBB27F00DB11D639F67
:10136000AA27F00DB11DAA1F649F6627B00DA11D0D
:10137000661F829F2227B00DA11D621F739FB00DB3
:10138000A11D621F839FA00D611D221F749F332723
:10139000A00D611D231F849F600D211D822F762FBC
:1013A0006A2F11249F5750409AF0F1F088234AF099
:1013B000EE0FFF1FBB1F661F771F881F9150504005
:1013C000A9F79E3F510580F00C943D090C948809C3
:1013D0005F3FE4F3983ED4F3869577956795B7958C
:1013E000F795E7959F5FC1F7FE2B880F911D9695A6
:1013F000879597F90895AEE0B0E0E1E0FAE00C944B
:101400009C070D891E8986E08C831A8309838FEFE0
:101410009FE79E838D83AE01475E5F4F6F89788D16
:10142000CE0101960E941D0AEF81F885E00FF11FA1
:1014300010822E96E4E00C94B807ABE0B0E0E3E253
:10144000FAE00C948E076C017B018A01FC01178283
:101450001682838181FFCCC1CE0101963C01F60149
:101460009381F70193FD859193FF81917F018823FB
:1014700009F4BAC1853239F493FD859193FF8191C6
:101480007F01853229F4B60190E00E94140CE7CF69
:10149000912C212C312CFFE1F315D8F08B3279F00F
:1014A00038F4803279F08332A1F4232D20611DC0FD
:1014B0008D3261F0803369F4232D216016C0832DB5
:1014C0008260382EE32DE4603E2E2AC0F32DF860B2
:1014D0001DC037FC2DC020ED280F2A3040F08E3281
:1014E000B9F436FC81C1232D2064322E19C036FE9A
:1014F00006C08AE0989E200D1124922E11C0EAE0C9
:101500002E9E200D1124222EF32DF0623F2E08C0B6
:101510008C3621F4832D8068382E02C0883641F441
:10152000F70193FD859193FF81917F018111B3CFE5
:10153000982F9F7D9554933028F40C5F1F4F9FE3A5
:1015400099830DC0833631F0833771F0833509F00C
:1015500059C021C0F801808189830E5F1F4F882404
:101560008394912C530113C02801F2E04F0E511CBB
:10157000F801A080B18036FE03C0692D70E002C082
:101580006FEF7FEFC5010E94090C4C018201F32D22
:10159000FF773F2E16C0280122E0420E511CF801B1
:1015A000A080B18036FE03C0692D70E002C06FEFED
:1015B0007FEFC5010E94FE0B4C01F32DF0683F2E1A
:1015C000820133FC1BC0822D90E088169906B0F48E
:1015D000B60180E290E00E94140C2A94F4CFF50149
:1015E00037FC859137FE81915F01B60190E00E9442
:1015F000140C21102A9421E0821A9108811491047C
:1016000071F7E8C0843611F0893641F5F80137FEEC
:1016100007C060817181828193810C5F1F4F08C078
:1016200060817181072E000C880B990B0E5F1F4F94
:10163000F32DFF763F2E97FF09C09095809570950A
:1016400061957F4F8F4F9F4FF0683F2E2AE030E02B
:10165000A3010E94500C882E861845C0853731F4AE
:10166000232D2F7EB22E2AE030E025C0932D997FC6
:10167000B92E8F36C1F018F4883579F0B5C08037AF
:1016800019F0883721F0B0C0E92FE061BE2EB4FE1A
:101690000DC0FB2DF460BF2E09C034FE0AC0292FF7
:1016A0002660B22E06C028E030E005C020E130E020
:1016B00002C020E132E0F801B7FE07C0608171810D
:1016C000828193810C5F1F4F06C06081718180E031
:1016D00090E00E5F1F4FA3010E94500C882E8618C9
:1016E000FB2DFF773F2E36FE0DC0232D2E7FA22E21
:1016F000891458F434FE0BC032FC09C0832D8E7E51
:10170000A82E05C0B82CA32C03C0B82C01C0B92C3E
:10171000A4FE0FC0FE01E80DF11D8081803321F48D
:101720009A2D997EA92E09C0A2FE06C0B394B39447
:1017300004C08A2D867809F0B394A3FC11C0A0FEE2
:1017400006C0B21488F4280C922C9B180EC0B21458
:1017500060F4B60180E290E00E94140CB394F7CFDD
:10176000B21418F42B1802C0982C212CA4FE10C01F
:10177000B60180E390E00E94140CA2FE17C0A1FC09
:1017800003C088E790E002C088E590E0B6010CC095
:101790008A2D867859F0A1FE02C08BE201C080E25A
:1017A000A7FC8DE2B60190E00E94140C891438F475
:1017B000B60180E390E00E94140C9A94F7CF8A94CB
:1017C000F301E80DF11D8081B60190E00E94140C38
:1017D0008110F5CF222009F442CEB60180E290E0DC
:1017E0000E94140C2A94F6CFF6018681978102C0DC
:1017F0008FEF9FEF2B96E2E10C94AA07FC01059076
:10180000615070400110D8F7809590958E0F9F1F02
:101810000895FC016150704001900110D8F7809547
:1018200090958E0F9F1F08950F931F93CF93DF9373
:10183000FB01238121FD03C08FEF9FEF2CC022FF0E
:1018400016C046815781248135814217530744F4DD
:10185000A081B1819D012F5F3F4F318320838C9305
:10186000268137812F5F3F4F3783268314C08B013A
:10187000EC01FB010084F185E02D0995892BE1F64F
:10188000D80116968D919C911797019617969C9367
:101890008E931697CE01DF91CF911F910F910895EE
:1018A000FA01AA27283051F1203181F1E8946F9391
:1018B0006E7F6E5F7F4F8F4F9F4FAF4FB1E03ED037
:1018C000B4E03CD0670F781F891F9A1FA11D680FD5
:1018D000791F8A1F911DA11D6A0F711D811D911D08
:1018E000A11D20D009F468943F912AE0269F11247D
:1018F0003019305D3193DEF6CF010895462F4770E1
:10190000405D4193B3E00FD0C9F7F6CF462F4F703B
:10191000405D4A3318F0495D31FD4052419302D099
:10192000A9F7EACFB4E0A69597958795779567953F
:10193000BA95C9F700976105710508959B01AC013F
:101940000A2E06945795479537952795BA95C9F766
:10195000620F731F841F951FA01D0895F894FFCF79
:0C196000E803E80300002564000D0A0005
:00000001FF
