:100000000C9434000C9451000C9434020C94510064
:100010000C9451000C9408020C9451000C94510063
:100020000C9451000C9451000C9451000C9451000C
:100030000C9451000C94F9010C9458020C9451004A
:100040000C9451000C9451000C9451000C945100EC
:100050000C9451000C9451000C9451000C945100DC
:100060000C9451000C94510011241FBECFEFD8E026
:10007000DEBFCDBF11E0A0E0B1E0E6E3FFE002C0EB
:1000800005900D92A630B107D9F721E0A6E0B1E0C6
:1000900001C01D92A131B207E1F70E949A020C94AF
:1000A00099070C9400001092C50087E68093C40065
:1000B00088E18093C10086E08093C200089590910A
:1000C000C00095FFFCCF8093C60008958091C000CA
:1000D00087FFFCCF8091C6000895CF93DF93EC019A
:1000E0008991882319F00E945F00FACFDF91CF91A8
:1000F00008950F931F93CF93DF93CDB7DEB72A9761
:100100000FB6F894DEBF0FBECDBF9F938F9380E0F4
:1001100091E09F938F938E010F5F1F4F1F930F935B
:100120000E94AF04C8010E946D0083E091E00E942C
:100130006D002FEF89E698E1215080409040E1F773
:1001400000C000000F900F900F900F900F900F9035
:100150002A960FB6F894DEBF0FBECDBFDF91CF91C8
:100160001F910F91089581E480937C0087E880932C
:100170007A00089554985C9AE8E6F0E08081846003
:100180008083EDE6F0E0808180618083E9E6F0E045
:10019000808188608083E99A0895219A82E880931B
:1001A000800089E180938100EFE6F0E0808181604A
:1001B00080838FE79EE3909387008093860081E0A1
:1001C00090E09093890080938800089580917A0050
:1001D000806480937A0080917A0084FFFCCF8091C4
:1001E0007A00806180937A00609178007091790044
:1001F00080E090E00E94B4032AE037ED43EA50E447
:100200000E9442040E948503CB010895CF92DF92A1
:10021000EF92FF92CF93DF93EC0160910C0170910C
:100220000D0180E090E00E94B40324E333EC41E947
:100230005EE30E9442046B017C01BE0180E090E01D
:100240000E94B40326E63EE147E35FE30E944204D6
:100250009B01AC01C701B6010E94A7020E94850361
:10026000CB01DF91CF91FF90EF90DF90CF90089579
:10027000BC0180E090E00E94B40320E030E04AE757
:1002800056E40E94420420E030E44CE955E40E9428
:10029000130320E030E040E85FE30E94A6020E94E2
:1002A0008503CB010895EF92FF920F931F93CF9395
:1002B000DF937B01229A0E9438018C01C8E8D0E0CC
:1002C000998388832FEF8BE792E9215080409040FB
:1002D000E1F700C00000C7010E94380199838883BC
:1002E0002A9A2FEF8BE792E9215080409040E1F766
:1002F00000C00000198308832A982FEF8BE792E94A
:10030000215080409040E1F700C00000198218821F
:10031000DF91CF911F910F91FF90EF900895229A56
:1003200082E084BD85E085BD8FEF87BD0895809113
:100330000A0190910B0120910A0130910B01832F4A
:100340008695869520910A0130910B019827492FB7
:10035000417050E0220F331F242B352B3770309320
:100360000B0120930A01817008950E94970181304A
:1003700041F48FEF91E390938900809388002A9A4B
:1003800008958FE79CE090938900809388002A98D5
:100390000895EEE6F0E080818D7F80831092090160
:1003A00010928900109288002A9808950E94C9012D
:1003B000109208011092070181E0809309018FEFEC
:1003C00097E090930B0180930A018FE79CE0909354
:1003D0008900809388002A982FEF83ED90E32150C5
:1003E00080409040E1F700C0000082E080936E0002
:1003F00008951F920F920FB60F9211248F9381E0F0
:10040000809306018F910F900FBE0F901F9018954B
:100410001F920F920FB60F9211242F933F934F9379
:100420005F936F937F938F939F93AF93BF93EF935C
:10043000FF934C9B08C00E94C90160EA7FE088EEF0
:1004400093E00E945301FF91EF91BF91AF919F9173
:100450008F917F916F915F914F913F912F910F906D
:100460000FBE0F901F9018951F920F920FB60F920C
:1004700011242F933F934F935F936F937F938F93A9
:100480009F93AF93BF93EF93FF930E94D601FF9189
:10049000EF91BF91AF919F918F917F916F915F91FC
:1004A0004F913F912F910F900FBE0F901F90189575
:1004B0001F920F920FB60F9211242F933F934F93D9
:1004C0005F936F937F938F939F93AF93BF93EF93BC
:1004D000FF9380910E018F5F80930E0180910E013A
:1004E0008430B8F0809107019091080101969093B3
:1004F00008018093070180910701909108018F3FC7
:10050000974019F40E94C90104C010920E010E9484
:10051000B501FF91EF91BF91AF919F918F917F9125
:100520006F915F914F913F912F910F900FBE0F9060
:100530001F9018950E94B3000E94CD000E94BA003F
:100540000E948F010E9453007894FFCF5058BB2720
:10055000AA270E94BE020C9408040E94FA0338F0F5
:100560000E94010420F039F49F3F19F426F40C9402
:10057000F7030EF4E095E7FB0C94F103E92F0E94DA
:10058000190458F3BA17620773078407950720F018
:1005900079F4A6F50C943B040EF4E0950B2EBA2FDB
:1005A000A02D0B01B90190010C01CA01A001112479
:1005B000FF27591B99F0593F50F4503E68F11A1625
:1005C000F040A22F232F342F4427585FF3CF4695B6
:1005D00037952795A795F0405395C9F77EF41F16D8
:1005E000BA0B620B730B840BBAF09150A1F0FF0FA2
:1005F000BB1F661F771F881FC2F70EC0BA0F621F8E
:10060000731F841F48F4879577956795B795F7957D
:100610009E3F08F0B0CF9395880F08F09927EE0F12
:100620009795879508950E9427030C9408040E94CB
:10063000010458F00E94FA0340F029F45F3F29F0CA
:100640000C94F10351110C943C040C94F7030E9498
:10065000190468F39923B1F3552391F3951B550BB6
:10066000BB27AA2762177307840738F09F5F5F4F85
:10067000220F331F441FAA1FA9F335D00E2E3AF0C4
:10068000E0E832D091505040E695001CCAF72BD0DC
:10069000FE2F29D0660F771F881FBB1F261737072D
:1006A0004807AB07B0E809F0BB0B802DBF01FF275F
:1006B00093585F4F3AF09E3F510578F00C94F10348
:1006C0000C943C045F3FE4F3983ED4F38695779511
:1006D0006795B795F7959F5FC9F7880F911D969518
:1006E000879597F90895E1E0660F771F881FBB1F74
:1006F000621773078407BA0720F0621B730B840B21
:10070000BA0BEE1F88F7E09508950E94210488F047
:100710009F5798F0B92F9927B751B0F0E1F0660FC5
:10072000771F881F991F1AF0BA95C9F714C0B13006
:1007300091F00E943B04B1E008950C943B04672FB4
:10074000782F8827B85F39F0B93FCCF38695779535
:100750006795B395D9F73EF490958095709561951E
:100760007F4F8F4F9F4F0895E89409C097FB3EF449
:1007700090958095709561957F4F8F4F9F4F9923EE
:10078000A9F0F92F96E9BB279395F695879577956C
:100790006795B795F111F8CFFAF4BB0F11F460FF2C
:1007A0001BC06F5F7F4F8F4F9F4F16C0882311F084
:1007B00096E911C0772321F09EE8872F762F05C098
:1007C000662371F096E8862F70E060E02AF09A9533
:1007D000660F771F881FDAF7880F9695879597F928
:1007E000089597F99F6780E870E060E008959FEFB3
:1007F00080EC089500240A941616170618060906B8
:10080000089500240A941216130614060506089586
:10081000092E0394000C11F4882352F0BB0F40F40E
:10082000BF2B11F460FF04C06F5F7F4F8F4F9F4F4E
:10083000089557FD9058440F551F59F05F3F71F0D0
:100840004795880F97FB991F61F09F3F79F0879537
:100850000895121613061406551FF2CF4695F1DFC0
:1008600008C0161617061806991FF1CF8695710550
:10087000610508940895E894BB2766277727CB0184
:1008800097F908950E9455040C9408040E94FA03F5
:1008900038F00E94010420F0952311F00C94F1032C
:1008A0000C94F70311240C943C040E94190470F377
:1008B000959FC1F3950F50E0551F629FF001729F05
:1008C000BB27F00DB11D639FAA27F00DB11DAA1F14
:1008D000649F6627B00DA11D661F829F2227B00D61
:1008E000A11D621F739FB00DA11D621F839FA00DEC
:1008F000611D221F749F3327A00D611D231F849F3C
:10090000600D211D822F762F6A2F11249F57504092
:100910009AF0F1F088234AF0EE0FFF1FBB1F661F0D
:10092000771F881F91505040A9F79E3F510580F0D6
:100930000C94F1030C943C045F3FE4F3983ED4F331
:10094000869577956795B795F795E7959F5FC1F77A
:10095000FE2B880F911D9695879597F90895AEE027
:10096000B0E0E5EBF4E00C9470070D891E8986E099
:100970008C831A8309838FEF9FE79E838D83AE015B
:10098000475E5F4F6F89788DCE0101960E94D1043A
:10099000EF81F885E00FF11F10822E96E4E00C94B1
:1009A0008C07ABE0B0E0E7EDF4E00C9462076C017B
:1009B0007B018A01FC0117821682838181FFCCC1F1
:1009C000CE0101963C01F6019381F70193FD8591DB
:1009D00093FF81917F01882309F4BAC1853239F4EC
:1009E00093FD859193FF81917F01853229F4B601B2
:1009F00090E00E94C806E7CF912C212C312CFFE11A
:100A0000F315D8F08B3279F038F4803279F08332F4
:100A1000A1F4232D20611DC08D3261F0803369F473
:100A2000232D216016C0832D8260382EE32DE460D3
:100A30003E2E2AC0F32DF8601DC037FC2DC020EDDE
:100A4000280F2A3040F08E32B9F436FC81C1232DB4
:100A50002064322E19C036FE06C08AE0989E200D12
:100A60001124922E11C0EAE02E9E200D1124222E78
:100A7000F32DF0623F2E08C08C3621F4832D806860
:100A8000382E02C0883641F4F70193FD859193FF1B
:100A900081917F018111B3CF982F9F7D9554933021
:100AA00028F40C5F1F4F9FE399830DC0833631F00C
:100AB000833771F0833509F059C021C0F801808176
:100AC00089830E5F1F4F88248394912C530113C098
:100AD0002801F2E04F0E511CF801A080B18036FED3
:100AE00003C0692D70E002C06FEF7FEFC5010E9467
:100AF000BD064C018201F32DFF773F2E16C0280161
:100B000022E0420E511CF801A080B18036FE03C0E5
:100B1000692D70E002C06FEF7FEFC5010E94B20641
:100B20004C01F32DF0683F2E820133FC1BC0822D57
:100B300090E088169906B0F4B60180E290E00E9439
:100B4000C8062A94F4CFF50137FC859137FE8191D0
:100B50005F01B60190E00E94C80621102A9421E0AE
:100B6000821A91088114910471F7E8C0843611F05B
:100B7000893641F5F80137FE07C0608171818281B5
:100B800093810C5F1F4F08C060817181072E000C9C
:100B9000880B990B0E5F1F4FF32DFF763F2E97FFAB
:100BA00009C090958095709561957F4F8F4F9F4FAD
:100BB000F0683F2E2AE030E0A3010E940407882E4F
:100BC000861845C0853731F4232D2F7EB22E2AE0BA
:100BD00030E025C0932D997FB92E8F36C1F018F4DF
:100BE000883579F0B5C0803719F0883721F0B0C06A
:100BF000E92FE061BE2EB4FE0DC0FB2DF460BF2EC8
:100C000009C034FE0AC0292F2660B22E06C028E093
:100C100030E005C020E130E002C020E132E0F80120
:100C2000B7FE07C060817181828193810C5F1F4F85
:100C300006C06081718180E090E00E5F1F4FA301CC
:100C40000E940407882E8618FB2DFF773F2E36FE64
:100C50000DC0232D2E7FA22E891458F434FE0BC014
:100C600032FC09C0832D8E7EA82E05C0B82CA32C83
:100C700003C0B82C01C0B92CA4FE0FC0FE01E80DC2
:100C8000F11D8081803321F49A2D997EA92E09C00F
:100C9000A2FE06C0B394B39404C08A2D867809F0EE
:100CA000B394A3FC11C0A0FE06C0B21488F4280CB3
:100CB000922C9B180EC0B21460F4B60180E290E052
:100CC0000E94C806B394F7CFB21418F42B1802C0D0
:100CD000982C212CA4FE10C0B60180E390E00E9465
:100CE000C806A2FE17C0A1FC03C088E790E002C0BE
:100CF00088E590E0B6010CC08A2D867859F0A1FEF7
:100D000002C08BE201C080E2A7FC8DE2B60190E058
:100D10000E94C806891438F4B60180E390E00E946E
:100D2000C8069A94F7CF8A94F301E80DF11D8081EB
:100D3000B60190E00E94C8068110F5CF222009F488
:100D400042CEB60180E290E00E94C8062A94F6CF17
:100D5000F6018681978102C08FEF9FEF2B96E2E12B
:100D60000C947E07FC010590615070400110D8F78B
:100D7000809590958E0F9F1F0895FC0161507040E3
:100D800001900110D8F7809590958E0F9F1F0895C0
:100D90000F931F93CF93DF93FB01238121FD03C0AA
:100DA0008FEF9FEF2CC022FF16C046815781248110
:100DB00035814217530744F4A081B1819D012F5F13
:100DC0003F4F318320838C93268137812F5F3F4FA4
:100DD0003783268314C08B01EC01FB010084F1856D
:100DE000E02D0995892BE1F6D80116968D919C91FD
:100DF0001797019617969C938E931697CE01DF91C5
:100E0000CF911F910F910895FA01AA27283051F12F
:100E1000203181F1E8946F936E7F6E5F7F4F8F4F2B
:100E20009F4FAF4FB1E03ED0B4E03CD0670F781F8A
:100E3000891F9A1FA11D680F791F8A1F911DA11D6F
:100E40006A0F711D811D911DA11D20D009F46894A8
:100E50003F912AE0269F11243019305D3193DEF650
:100E6000CF010895462F4770405D4193B3E00FD006
:100E7000C9F7F6CF462F4F70405D4A3318F0495DF1
:100E800031FD4052419302D0A9F7EACFB4E0A695D4
:100E90009795879577956795BA95C9F700976105F6
:100EA000710508959B01AC010A2E0694579547954C
:100EB00037952795BA95C9F7620F731F841F951F41
:100EC000A01D08952F923F924F925F926F927F9252
:100ED0008F929F92AF92BF92CF92DF92EF92FF924A
:100EE0000F931F93CF93DF93CDB7DEB7CA1BDB0BF6
:100EF0000FB6F894DEBF0FBECDBF09942A8839889B
:100F000048885F846E847D848C849B84AA84B984A1
:100F1000C884DF80EE80FD800C811B81AA81B981AD
:100F2000CE0FD11D0FB6F894DEBF0FBECDBFED01C1
:060F30000895F894FFCFC4
:060F36002564000D0A0015
:00000001FF
